:020000040000FA
:02000000062DCB
:08000800AD288316810181126D
:100010000111811001108113831600308500F0302A
:10002000860000308700831292011215121392127B
:10003000121292159210121083168C018C148312D6
:100040008B018B168312850186018701BB01BC01E0
:100050001430BF000A30C2000530C1000230C000B9
:10006000C301CF01FF30C400FF30C500FF30C60020
:100070000A30D100D001B201B301B401B5010C3096
:10008000B600B701B801FF30B900FF30BA00003048
:10009000C700C801C901CA01DC01DD01DE01DD16AE
:1000A0000030A000A100A200A300A400A5000B3016
:1000B000A600D501D60183161F30920083120610C8
:1000C00018218B17080082070134043407340F34D9
:1000D00002340534083400340334063409340E3451
:1000E000820701344F34123406344C342434203423
:1000F0000F34003404347F34073467347E3477346B
:100100003634763470343034503408347134093431
:1001100018347A3427342F3467341F347F348207FD
:10012000003400340334043406340A3482072034A3
:1001300008340434023410340134CB014D08CC02AD
:100140000318A5284D08CC070800CB0A9F280301F7
:100150004B07CC0303190800A828A8000308A70030
:1001600083010408D8004B08D9004C08DA004D0878
:10017000DB00E9200B198E225908CB005A08CC006D
:100180005B08CD0058088400270883002808090070
:100190001430BF003B220130480203198924501754
:1001A000C2030319D42008000A30C200C103031996
:1001B000DA2008000530C1005008023AD000CF0A0A
:1001C000C0030319E42008000230C0007523AF23E8
:1001D000080006105D08023ADD00D708031DD703AA
:1001E00050081C3903191729D708031D0329501279
:1001F0005008203AD00000305019FF30D01980301C
:10020000D0180030D700501A0929D01A1729D01851
:100210001729DD1D10295D1D1029DD1C1029172946
:10022000D01F15290610D01317290614D01708005F
:100230000030470203195C210130470203199B215A
:10024000023047020319FF210800CC000A30CD001C
:100250009D20540884004B088000840A4C088000CC
:100260000800B208031D352908002030D4003208E8
:1002700025210800B208031D42292030D40033088C
:10028000252108002230D400330825210800B208B7
:10029000031D4F292230D4003408252108002430C2
:1002A000D400340825210800B208031D5B2924303E
:1002B000D4003508252108005D1B362A003048028D
:1002C000031970290130480203196A2908000B300C
:1002D000A6006B29852131213A21472154210800AC
:1002E0000B30A600D01D0800D01A6B29D0186B293E
:1002F0000A30A0000A30A1000A30A2000A30A30090
:100300000A30A4000A30A50008005D1E9129323091
:100310003502031C8E290B30A6009A290A30A6004C
:100320009A2932303502031C98290A30A6009A29EE
:100330000B30A6000800013049020319F729DD1E21
:100340005D135D1B362A1A30DD1A0B30D0180A30C7
:10035000A600DC080319BB29B818BB290530A0008A
:100360001630A1000030A2000030A3000230A4002B
:100370001230A50008003708CC000A30CD009D20BF
:100380004B08A2004C08A300DD1AE4290C30360209
:100390000318CB293608FF3903190C30CC000A307A
:1003A000CD009D204B0803190A30A0004C08A10085
:1003B0000A30A40036080B3C031CE1291430A500C8
:1003C00008001730A50008003608CC000A30CD0020
:1003D0009D204B08A0004C08A1003808CC000A3032
:1003E000CD009D204B08A4004C08A50008004E0835
:1003F000203E84000E30D01C0A30800008000230FD
:100400004A020319232A1330A6001430A000153025
:10041000A10001304A020319F729FF3039020319FC
:10042000242A3908CC000A30CD009D204B08A200B8
:100430004C08A3003A08CC000A30CD009D204B08A0
:10044000A4004C08A50008000D30A2000D30A30048
:100450000D30A4000D30A50008004E08203E840099
:1004600051088000CE0A06304E0208001B30D01C16
:100470001C30A60008000608BE00BD01BE1FBD0A54
:100480003E1FBD0ABE1EBD0A3E1EBD0ABD03031DA2
:10049000642ABE1F00303E1F0130BE1E02303E1EC9
:1004A0000330BD004308BE00BE0DBE0D3E080C3932
:1004B0003D046320C51B632AFF30C500FF30C40024
:1004C0000230C300642AC500861506158614C30AC7
:1004D0004308033C031D712A4508C400C301FF30D3
:1004E000C50043080319861143180611C318861066
:1004F000080003304E020319802A4E088F20872AF5
:10050000223084000A300230000203190430510204
:1005100003188C2A2D220800FF300800BF0303199E
:10052000C820D60A093056020319D60101305E02EE
:100530000319B82A7F3087008501BB0A3B08203E9B
:10054000840000087020870006303B02031DAC2A9F
:100550008717FF30BB00AF2A3B089620850055085F
:1005600056020318B62A7F30870085010B11080058
:100570000330CD003808CC009D204C08031DD42A40
:1005800001304002031DD42A01304102031DD42A48
:1005900001304202031DD42A203056020318D42A07
:1005A000BF3087008501B62A7F3087001030850074
:1005B000B62A00000000000000000000000000005B
:1005C0000000A90BD92A0800C430B000FF30A900F0
:1005D000D922B00BE62A080000305E020319F32A84
:1005E0000230DE0008000030490203190F2B0E30E4
:1005F0005102031DFE2A0030C90008007922FF398C
:10060000031D08003E231430BF000A30C20005302D
:10061000C1000230C000D0100030C9000800013015
:1006200051020319202B023051020319232B0330EE
:1006300051020319262B053051020319292B0800FA
:100640000930D50008000730D50008000030D5007B
:100650000800DC08031D0800B10131173108DD0670
:100660000800B10084000008CC000A30CB00A720AD
:10067000D200310A840000085207080022303123DA
:10068000B60024303123B700B80108000130490218
:10069000031908005D130E30510203195D2B003061
:1006A00051020319542B080000305E0203195A2B23
:1006B000DE0108000130DE00080000305E02031990
:1006C000622B08000230CE000130C9001130A000BA
:1006D0000A30A1000E30A2000E30A3000E30A4009C
:1006E0000E30A5001330A6000800B80A3C303802CE
:1006F00003197B2B8A2BB801B70A3C303702031948
:10070000822B8A2BB701B60A183036020319892BBF
:100710008A2BB601B808031D08009023A723080000
:100720003908FF3C0319A52B39083602031DA52BF8
:100730003A083702031DA52BDD115015C901CA0166
:10074000DE010130C7005D13080050110800DC080D
:100750000319AE2BDC03031DAE2B9C2B08005E0897
:10076000013C03180800DE0A06305E020319B92BAB
:1007700008000130DE00080001304A02031D0800B5
:100780000E305102031DCA2BFF30B900BA000030F1
:10079000CA0008007922FF39031D0800D223003067
:1007A000CA00080022303123B90024303123BA00B6
:1007B000080000304A02031D08000E3051020319E0
:1007C000E62B003051020319F92B08000230CE004D
:1007D0000130CA001430A0001530A1000E30A20074
:1007E0000E30A3000E30A4000E30A5001330A6007A
:1007F00008000230CA001830A0001230A1000A30F0
:10080000A2000230A3000130A4000130A50019307D
:10081000A60008000E30510203191D2C00305102B1
:100820000319132C080000305E020319192CDE0195
:1008300008000130DE00080008000030C8005D1329
:10084000DD13B201B301B401B5010030A000A10075
:10085000A200A300A400A5005D1208000030480219
:100860000319332C080031213A2147215421080073
:1008700000305E0203193F2C0230DE0008000E300B
:1008800051020319762C003048020319532C05300D
:1008900051020319012D00305102031908005D08AF
:1008A000013ADD000800DD1B08000A305102031880
:1008B00008002108A0002208A1002308A2002408A3
:1008C000A3002508A4005108A50020303123B20060
:1008D00022303123B30024303123B400B5010301A9
:1008E000320733073407031D5D1608000130480244
:1008F0000319842C320833043404350403195D12BF
:100900000130C800DD1708005D130030C800332433
:1009100008005D1EA12C3208330434043504031D85
:10092000A12C003048020319A02CDD11D015003095
:10093000C800C901CA01DE010030C7005D1367218C
:1009400008005D1ED42CB503FF3035020319A92C15
:100950000800B50132083304340403190800633079
:10096000B500B403F224FF3034020319B82C080098
:10097000B401003032083304031908003B30B400DE
:10098000B303FF3033020319C62C0800B301320849
:10099000031908003B30B300B203FF3032020319E1
:1009A000D22C0800B2010800B50A643035020319E0
:1009B000DA2C0800B501B40AF2243C3034020319E1
:1009C000E22C0800B401B30A3C3033020319E92CCD
:1009D0000800B301B20A643032020319F02C080097
:1009E000B2010800003047020319F72C08005D0827
:1009F000043ADD005D1C0800DD152030D7005016DC
:100A00000800B10131173108DD0608000520501F2C
:100A10000B2D182150134408D100D11B4E2D460830
:100A200051020319512D5108C600CF0100305E025A
:100A300003191F2D01305E020319DE0A072DDD1197
:100A40003030D700501650080C390319392D0F30AB
:100A500051020319322DD0196B21DC015011D01134
:100A6000D701072D501D2B2D0A30DC005011D70166
:100A7000072D0F3051020319862D0F305102031933
:100A8000692D003047020319382401304702031949
:100A9000EC22023047020319BC23072DFF30C600A9
:100AA000072D04304F020319562D072DCF015D137A
:100AB000DD113030D70050160030470203190A24E8
:100AC0000130470203194623023047020319D92394
:100AD000072D5D13013047020319772DC901CA01A3
:100AE000C70A033047020319C7018125072D0030CB
:100AF000490203196E2DB101B1163108DD06C90195
:100B0000072D0030470203192E240800DC080319C2
:060B10003D2DDC01072D64
:02400E00A13FD0
:00000001FF
