:020000040000FA
:02000000072DCA
:08000800AD288316810181126D
:100010000111811001108113831600308500F0302A
:10002000860000308700831292011215121392127B
:10003000121292159210121083168C018C148312D6
:100040008B018B168312850186018701BB01BC01E0
:100050001430BF000A30C2000530C1000230C000B9
:10006000C301CF01FF30C400FF30C500FF30C60020
:100070000A30D100D001B201B301B401B5010C3096
:10008000B600B701B801FF30B900FF30BA00003048
:10009000C700C801C901CA01DC01DD01DE01DD16AE
:1000A0000030A000A100A200A300A400A5000B3016
:1000B000A600D501D60183161F30920083120610C8
:1000C00018218B17080082070134043407340F34D9
:1000D00002340534083400340334063409340E3451
:1000E00082078134CF3492348634CC34A434A034A3
:1000F0008F3480348434FF348734E734FE34F7346B
:10010000B634F634F034B034D0348834F134893431
:100110009834FA34A734AF34E7349F34FF3482077D
:10012000003400340334043406340A3482072034A3
:1001300008340434023410340134CB014D08CC02AD
:100140000318A5284D08CC070800CB0A9F280301F7
:100150004B07CC0303190800A828A8000308A70030
:1001600083010408D8004B08D9004C08DA004D0878
:10017000DB00E9200B198E225908CB005A08CC006D
:100180005B08CD0058088400270883002808090070
:100190001430BF003B220130480203198A24501753
:1001A000C2030319D42008000A30C200C103031996
:1001B000DA2008000530C1005008023AD000CF0A0A
:1001C000C0030319E42008000230C0007623B023E6
:1001D000080006105D08023ADD00D708031DD703AA
:1001E00050081C3903191729D708031D0329501279
:1001F0005008203AD00000305019FF30D01980301C
:10020000D0180030D700501A0929D01A1729D01851
:100210001729DD1D10295D1D1029DD1C1029172946
:10022000D01F15290610D01317290614D01708005F
:100230000030470203195C210130470203199B215A
:10024000023047020319FF210800CC000A30CD001C
:100250009D20540884004B088000840A4C088000CC
:100260000800B208031D352908002030D4003208E8
:1002700025210800B208031D42292030D40033088C
:10028000252108002230D400330825210800B208B7
:10029000031D4F292230D4003408252108002430C2
:1002A000D400340825210800B208031D5B2924303E
:1002B000D4003508252108005D1B362A003048028D
:1002C000031970290130480203196A2908000B300C
:1002D000A6006B29852131213A21472154210800AC
:1002E0000B30A600D01D0800D01A6B29D0186B293E
:1002F0000A30A0000A30A1000A30A2000A30A30090
:100300000A30A4000A30A50008005D1E9129323091
:100310003502031C8E290B30A6009A290A30A6004C
:100320009A2932303502031C98290A30A6009A29EE
:100330000B30A6000800013049020319F729DD1E21
:100340005D135D1B362A1A30DD1A0B30D0180A30C7
:10035000A600DC080319BB29B818BB290530A0008A
:100360001630A1000030A2000030A3000230A4002B
:100370001230A50008003708CC000A30CD009D20BF
:100380004B08A2004C08A300DD1AE4290C30360209
:100390000318CB293608FF3903190C30CC000A307A
:1003A000CD009D204B0803190A30A0004C08A10085
:1003B0000A30A40036080B3C031CE1291430A500C8
:1003C00008001730A50008003608CC000A30CD0020
:1003D0009D204B08A0004C08A1003808CC000A3032
:1003E000CD009D204B08A4004C08A50008004E0835
:1003F000203E84000E30D01C0A30800008000230FD
:100400004A020319232A1330A6001430A000153025
:10041000A10001304A020319F729FF3039020319FC
:10042000242A3908CC000A30CD009D204B08A200B8
:100430004C08A3003A08CC000A30CD009D204B08A0
:10044000A4004C08A50008000D30A2000D30A30048
:100450000D30A4000D30A50008004E08203E840099
:1004600051088000CE0A06304E0208001B30D01C16
:100470001C30A60008000608BE00BD01BE1FBD0A54
:100480003E1FBD0ABE1EBD0A3E1EBD0ABD03031DA2
:10049000642ABE1F00303E1F0130BE1E02303E1EC9
:1004A0000330BD004308BE00BE0DBE0D3E080C3932
:1004B0003D046320C51B632AFF30C500FF30C40024
:1004C0000230C300642AC500861506158614C30AC7
:1004D0004308033C031D712A4508C400C301FF30D3
:1004E000C50043080319861143180611C318861066
:1004F000080003304E020319802A4E088F20872AF5
:10050000223084000A300230000203190430510204
:1005100003188C2A2D220800FF300800BF0303199E
:10052000C820093056020319D60101305E020319B2
:10053000B92A8717FF308500BB0AD60A3B08203E40
:10054000840000087020870006303B02031DAC2A9F
:100550008713FF30BB00B02A3B089620FF3A850086
:10056000550856020318B72A8717FF3085000B116C
:1005700008000330CD003808CC009D204C08031D36
:10058000D62A01304002031DD62A01304102031D44
:10059000D62A01304202031DD62A303056020318F3
:1005A000D62A3F308700FF308500B72A8717FF30F3
:1005B0008500B72A000000000000000000000000D5
:1005C00000000000A90BDA2A0800C430B000FF3098
:1005D000A900DA22B00BE72A080000305E020319F6
:1005E000F42A0230DE000800003049020319102B03
:1005F0000E305102031DFF2A0030C9000800792285
:10060000FF39031D08003F231430BF000A30C20029
:100610000530C1000230C000D0100030C900080011
:10062000013051020319212B023051020319242BEE
:10063000033051020319272B0530510203192A2BCD
:1006400008000A30D50008000530D5000800003049
:10065000D5000800DC08031D0800B101311731087E
:10066000DD060800B10084000008CC000A30CB0091
:10067000A720D200310A8400000852070800223067
:100680003223B60024303223B700B801080001300D
:100690004902031908005D130E30510203195E2B45
:1006A000003051020319552B080000305E02031977
:1006B0005B2BDE0108000130DE00080000305E0226
:1006C0000319632B08000230CE000130C90011303D
:1006D000A0000A30A1000E30A2000E30A3000E30A0
:1006E000A4000E30A5001330A6000800B80A3C3064
:1006F000380203197C2B8B2BB801B70A3C30370228
:100700000319832B8B2BB701B60A18303602031955
:100710008A2B8B2BB601B808031D08009123A82350
:1007200008003908FF3C0319A62B39083602031DBF
:10073000A62B3A083702031DA62BDD115015C9015F
:10074000CA01DE010130C7005D1308005011080026
:10075000DC080319AF2BDC03031DAF2B9D2B080016
:100760005E08013C03180800DE0A06305E02031929
:10077000BA2B08000130DE00080001304A02031DD8
:1007800008000E305102031DCB2BFF30B900BA0018
:100790000030CA0008007922FF39031D0800D32366
:1007A0000030CA00080022303223B900243032233E
:1007B000BA00080000304A02031D08000E30510242
:1007C0000319E72B003051020319FA2B08000230FD
:1007D000CE000130CA001430A0001530A1000E3048
:1007E000A2000E30A3000E30A4000E30A50013307E
:1007F000A60008000230CA001830A0001230A10084
:100800000A30A2000230A3000230A4000130A5008B
:100810001930A60008000E30510203191E2C0030BA
:1008200051020319142C080000305E0203191A2C1F
:10083000DE0108000130DE00080008000030C800BA
:100840005D13DD13B201B301B401B5010030A000A6
:10085000A100A200A300A400A5005D1208000030C2
:1008600048020319342C080031213A214721542130
:10087000080000305E020319402C0230DE00080040
:100880000E3051020319772C003048020319542C02
:10089000053051020319022D0030510203190800DE
:1008A0005D08013ADD000800DD1B08000A30510236
:1008B000031808002108A0002208A1002308A200B4
:1008C0002408A3002508A4005108A50020303223E5
:1008D000B20022303223B30024303223B400B501F9
:1008E0000301320733073407031D5D16080001308A
:1008F00048020319852C32083304340435040319E3
:100900005D120130C800DD1708005D130030C8001B
:10091000342408005D1EA22C32083304340435044C
:10092000031DA22C003048020319A12CDD11D015A3
:100930000030C800C901CA01DE010030C7005D13E4
:10094000672108005D1ED52CB503FF303502031961
:10095000AA2C0800B5013208330434040319080036
:100960006330B500B403F324FF3034020319B92C0B
:100970000800B401003032083304031908003B308A
:10098000B400B303FF3033020319C72C0800B301CE
:100990003208031908003B30B300B203FF303202C3
:1009A0000319D32C0800B2010800B50A64303502DF
:1009B0000319DB2C0800B501B40AF3243C303402DF
:1009C0000319E32C0800B401B30A3C3033020319C5
:1009D000EA2C0800B301B20A643032020319F12C88
:1009E0000800B2010800003047020319F82C080083
:1009F0005D08043ADD005D1C0800DD152030D700DD
:100A000050160800B10131173108DD060800052035
:100A1000501F0C2D182150134408D100D11B4F2D0D
:100A2000460851020319522D5108C600CF0100306B
:100A30005E020319202D01305E020319DE0A082D23
:100A4000DD113030D700501650080C3903193A2DFB
:100A50000F3051020319332DD0196B21DC015011D5
:100A6000D011D701082D501D2C2D0A30DC0050115B
:100A7000D701082D0F3051020319872D0F30510275
:100A800003196A2D00304702031939240130470247
:100A90000319ED22023047020319BD23082DFF3050
:100AA000C600082D04304F020319572D082DCF0121
:100AB0005D13DD113030D7005016003047020319A6
:100AC0000B24013047020319472302304702031960
:100AD000DA23082D5D13013047020319782DC9016F
:100AE000CA01C70A033047020319C7018225082D2E
:100AF0000030490203196F2DB101B1163108DD062E
:100B0000C901082D0030470203192F240800DC0812
:080B100003193E2DDC01082D44
:02400E00A13FD0
:00000001FF
