:020000040000FA
:02000000152DBC
:08000800AD288316810181126D
:100010000111811001108113831600308500F0302A
:10002000860000308700831292011215121392127B
:10003000121292159210121083168C018C148312D6
:100040008B018B168312850186018701BB01BC01E0
:100050001430BF000A30C2000530C1000230C000B9
:10006000C301CF01FF30C400FF30C500FF30C60020
:100070000A30D100D001B201B301B401B5010C3096
:10008000B600B701B801FF30B900FF30BA00003048
:10009000C700C801C901CA01DC01DD01DE01DD16AE
:1000A0000030A000A100A200A300A400A5000B3016
:1000B000A600D501D60183161F30920083120610C8
:1000C00018218B17080082070134043407340F34D9
:1000D00002340534083400340334063409340E3451
:1000E00082078134CF3492348634CC34A434A034A3
:1000F0008F3480348434FF348734E734FE34F7346B
:10010000B634F634F034B034D0348834F134893431
:100110009834FA34A734AF34E7349F34FF3482077D
:10012000003400340334043406340A3482072034A3
:1001300008340434023410340134CB014D08CC02AD
:100140000318A5284D08CC070800CB0A9F280301F7
:100150004B07CC0303190800A828A8000308A70030
:1001600083010408D8004B08D9004C08DA004D0878
:10017000DB00E9200B198E225908CB005A08CC006D
:100180005B08CD0058088400270883002808090070
:100190001430BF003B220130480203199824501745
:1001A000C2030319D42008000A30C200C103031996
:1001B000DA2008000530C1005008023AD000CF0A0A
:1001C000C0030319E42008000230C0008423BE23CA
:1001D000080006105D08023ADD00D708031DD703AA
:1001E00050081C3903191729D708031D0329501279
:1001F0005008203AD00000305019FF30D01980301C
:10020000D0180030D700501A0929D01A1729D01851
:100210001729DD1D10295D1D1029DD1C1029172946
:10022000D01F15290610D01317290614D01708005F
:100230000030470203195C210130470203199B215A
:10024000023047020319FF210800CC000A30CD001C
:100250009D20540884004B088000840A4C088000CC
:100260000800B208031D352908002030D4003208E8
:1002700025210800B208031D42292030D40033088C
:10028000252108002230D400330825210800B208B7
:10029000031D4F292230D4003408252108002430C2
:1002A000D400340825210800B208031D5B2924303E
:1002B000D4003508252108005D1B362A003048028D
:1002C000031970290130480203196A2908000B300C
:1002D000A6006B29852131213A21472154210800AC
:1002E0000B30A600D01D0800D01A6B29D0186B293E
:1002F0000A30A0000A30A1000A30A2000A30A30090
:100300000A30A4000A30A50008005D1E9129323091
:100310003502031C8E290B30A6009A290A30A6004C
:100320009A2932303502031C98290A30A6009A29EE
:100330000B30A6000800013049020319F729DD1E21
:100340005D135D1B362A1A30DD1A0B30D0180A30C7
:10035000A600DC080319BB29B818BB290530A0008A
:100360001630A1000030A2000030A3000230A4002B
:100370001230A50008003708CC000A30CD009D20BF
:100380004B08A2004C08A300DD1AE4290C30360209
:100390000318CB293608FF3903190C30CC000A307A
:1003A000CD009D204B0803190A30A0004C08A10085
:1003B0000A30A40036080B3C031CE1291430A500C8
:1003C00008001730A50008003608CC000A30CD0020
:1003D0009D204B08A0004C08A1003808CC000A3032
:1003E000CD009D204B08A4004C08A50008004E0835
:1003F000203E84000E30D01C0A30800008000230FD
:100400004A020319232A1330A6001430A000153025
:10041000A10001304A020319F729FF3039020319FC
:10042000242A3908CC000A30CD009D204B08A200B8
:100430004C08A3003A08CC000A30CD009D204B08A0
:10044000A4004C08A50008000D30A2000D30A30048
:100450000D30A4000D30A50008004E08203E840099
:1004600051088000CE0A06304E0208001B30D01C16
:100470001C30A60008000608BE00BD01BE1FBD0A54
:100480003E1FBD0ABE1EBD0A3E1EBD0ABD03031DA2
:10049000642ABE1F00303E1F0130BE1E02303E1EC9
:1004A0000330BD004308BE00BE0DBE0D3E080C3932
:1004B0003D046320C51B632AFF30C500FF30C40024
:1004C0000230C300642AC500861506158614C30AC7
:1004D0004308033C031D712A4508C400C301FF30D3
:1004E000C50043080319861143180611C318861066
:1004F000080003304E020319802A4E088F20872AF5
:10050000223084000A300230000203190430510204
:1005100003188C2A2D220800FF300800BF0303199E
:10052000C820093056020319D60101305E020319B2
:10053000C72A8717FF308500DF03031DA12ABB0AE6
:10054000D60A3B08203E84000008702087005F0820
:10055000031DB22A0130DF0004303B02031DB22A22
:100560000230DF0006303B02031DBA2A8713FF303A
:10057000BB00BE2A3B089620FF3A8500550856026C
:100580000318C52A8717FF3085000B1108000330B8
:10059000CD003808CC009D204C08031DE42A013012
:1005A0004002031DE42A01304102031DE42A013008
:1005B0004202031DE42A303056020318E42A3F3079
:1005C0008700FF308500C52A8717FF308500C52AC0
:1005D000000000000000000000000000000000001B
:1005E000A90BE82A0800C430B000FF30A900E822B7
:1005F000B00BF52A080000305E020319022B02300E
:10060000DE0008000030490203191E2B0E30510293
:10061000031D0D2B0030C90008007922FF39031D8E
:1006200008004D231430BF000A30C2000530C1005D
:100630000230C000D0100030C90008000130510263
:1006400003192F2B023051020319322B03305102B0
:100650000319352B053051020319382B08000A30D5
:10066000D50008000530D50008000030D50008008E
:10067000DC08031D0800B10131173108DD06080050
:10068000B10084000008CC000A30CB00A720D200C3
:10069000310A840000085207080022304023B600C7
:1006A00024304023B700B801080001304902031983
:1006B00008005D130E30510203196C2B00305102FB
:1006C0000319632B080000305E020319692BDE0159
:1006D00008000130DE00080000305E020319712BB3
:1006E00008000230CE000130C9001130A0000A30ED
:1006F000A1000E30A2000E30A3000E30A4000E3078
:10070000A5001330A6000800B80A3C3038020319CF
:100710008A2B992BB801B70A3C3037020319912B69
:10072000992BB701B60A183036020319982B992B6A
:10073000B601B808031D08009F23B6230800390836
:10074000FF3C0319B42B39083602031DB42B3A08B9
:100750003702031DB42BDD115015C901CA01DE019A
:100760000130C7005D13080050110800DC080319B0
:10077000BD2BDC03031DBD2BAB2B08005E08013C29
:1007800003180800DE0A06305E020319C82B0800B1
:100790000130DE00080001304A02031D08000E305F
:1007A0005102031DD92BFF30B900BA000030CA0036
:1007B00008007922FF39031D0800E1230030CA0038
:1007C000080022304023B90024304023BA0008003A
:1007D00000304A02031D08000E3051020319F52BA8
:1007E000003051020319082C08000230CE000130FD
:1007F000CA001430A0001530A1000E30A2000E3047
:10080000A3000E30A4000E30A5001330A60008008F
:100810000230CA001830A0001230A1000A30A20035
:100820000230A3000230A4000030A5001930A60059
:1008300008000E30510203192C2C0030510203190C
:10084000222C080000305E020319282CDE0108006B
:100850000130DE00080008000030C8005D13DD1321
:10086000B201B301B401B5010030A000A100A200A3
:10087000A300A400A5005D1208000030480203197F
:10088000422C080031213A21472154210800003030
:100890005E0203194E2C0230DE0008000E305102B9
:1008A0000319852C003048020319622C05305102CF
:1008B0000319102D00305102031908005D08013A98
:1008C000DD000800DD1B08000A3051020318080093
:1008D0002108A0002208A1002308A2002408A300E8
:1008E0002508A4005108A50020304023B200223082
:1008F0004023B30024304023B400B5010301320784
:1009000033073407031D5D16080001304802031940
:10091000932C320833043404350403195D1201307A
:10092000C800DD1708005D130030C800422408002D
:100930005D1EB02C3208330434043504031DB02C82
:10094000003048020319AF2CDD11D0150030C8006B
:10095000C901CA01DE010030C7005D13672108002C
:100960005D1EE32CB503FF3035020319B82C0800D7
:10097000B501320833043404031908006330B500AC
:10098000B4030125FF3034020319C72C0800B40159
:10099000003032083304031908003B30B400B303BD
:1009A000FF3033020319D52C0800B30132080319B4
:1009B00008003B30B300B203FF3032020319E12CD0
:1009C0000800B2010800B50A643035020319E92CA9
:1009D0000800B501B40A01253C3034020319F12C9A
:1009E0000800B401B30A3C3033020319F82C0800A4
:1009F000B301B20A643032020319FF2C0800B201BD
:100A00000800003047020319062D08005D08043A6B
:100A1000DD005D1C0800DD152030D70050160800F1
:100A2000B10131173108DD0608000520501F1A2DCD
:100A3000182150134408D100D11B5D2D46085102E6
:100A40000319602D5108C600CF0100305E02031962
:100A50002E2D01305E020319DE0A162DDD11303015
:100A6000D700501650080C390319482D0F30510289
:100A70000319412DD0196B21DC015011D011D70180
:100A8000162D501D3A2D0A30DC005011D701162DBD
:100A90000F3051020319952D0F3051020319782D93
:100AA0000030470203194724013047020319FB2293
:100AB000023047020319CB23162DFF30C600162D36
:100AC00004304F020319652D162DCF015D13DD1182
:100AD0003030D70050160030470203191924013076
:100AE000470203195523023047020319E823162D44
:100AF0005D13013047020319862DC901CA01C70AD7
:100B0000033047020319C7019025162D0030490212
:100B100003197D2DB101B1163108DD06C901162D6D
:100B20000030470203193D240800DC0803194C2D4E
:040B3000DC01162DA1
:02400E00A13FD0
:00000001FF
